:0704710005380004FF03C37E
:1003C3008E428F438C448D45E5438542F012039062
:1003D30003E7000103F2000203FD00030408000425
:1003E30000000413E544454524FFB392A08026E5AD
:1003F30044454524FFB392A1801BE544454524FFB2
:10040300B392A28010E544454524FFB392A380052F
:0B0413007EFF7FFF22E47E007F0022BE
:07052D004396F05395F02204
:1004780011083D3D5359532050415353574F52444F
:100488003D3D0011192A2A2A2A2A2A2A2A2A2A2AF2
:060498002A2A2A2A2A008C
:100003001205237FE87E031204B0AB2CAA2DA92E80
:1000130089828A837D01AF081203C1AB2CAA2DA963
:100023002E89828A837D01AF091203C1AB2CAA2DCD
:10003300A92E89828A837D01AF0A1203C1AB2CAA40
:100043002DA92E89828A837D01AF0B1203C1AB2CAC
:10005300AA2DA92E89828A837D01AF0C1203C1AB1D
:100063002CAA2DA92E89828A837D01AF0D1203C18B
:10007300AB2CAA2DA92E89828A837D01AF0E120390
:10008300C1AB2CAA2DA92E89828A837D01AF0F12C1
:1000930003C1AB2CAA2DA92E89828A837D01AF10BF
:1000A3001203C1AB2CAA2DA92E89828A837D01AFAD
:1000B300111203C1AB2CAA2DA92E89828A837D013B
:1000C300AF121203C1AB2CAA2DA92E89828A837D7C
:1000D30001AF131203C1AB2CAA2DA92E89828A83E7
:1000E3007D01AF141203C1AB2CAA2DA92E89828ADC
:1000F300837D01AF151203C1AB2CAA2DA92E8982D2
:100103008A837D01AF161203C1AB2CAA2DA92E89B8
:10011300828A837D01AF171203C1AB2CAA2DA92EAE
:1001230089828A837D01AF181203C17B007A00792B
:1001330019C003C002C001AB2FAA30A93189828A3A
:1001430083D001D002D0037D017C001203C180FE65
:010153002289
:0A05230012052D12051012015422DA
:0404B0008E468F479E
:1004B400E5471547AE4670021546FFEF4E601C75C2
:1004C4004800E548C3943250E7754900E549C394B0
:0B04D400145004054980F5054880E73E
:0104DF0022FA
:07049E00053D0008FF02F01C
:0402F0008E4A8F4B58
:1002F400754C00754D00E54B854AF01203900326BA
:100304000001032D000203340003033B00040342F5
:1003140000050349000603500007035700080000C6
:10032400035EA2B2E4FE33FF22A2B3E4FE33FF2253
:10033400A2B4E4FE33FF22A2B5E4FE33FF22A2B648
:10034400E4FE33FF22A2B7E4FE33FF22A297E4FEC9
:0E03540033FF22A2CDE4FE33FF227EFF7FFFA7
:010362002278
:1005100053B20353B10353CADF53CADF53927F531D
:03052000927F22A5
:0A04A500082A0001FF041EFF027583
:10041E008F528D53E55324FF92807F057E00120488
:10042E00E053A00FE55254F0FFEF42A0D2827F0AB4
:10043E007E001204E0C2827F0A7E001204E0E552C2
:10044E00C454F0F55253A00FE55254F0FFEF42A002
:10045E00D2827F0A7E001204E0C2827F0A7E0012E0
:03046E0004E02285
:0A0275008B328A3389348C358D36C4
:10027F00753700E53645357013AB2CAA2DA92E899D
:10028F00828A837D007F801203C18011AB2CAA2D3F
:10029F00A92E89828A837D007FC01203C17F647E6D
:1002AF00001204E0753700E537C3941050327F0A0F
:1002BF007E001204E0AB32AA33A934AF378F8275B8
:1002CF008300120363FFAB2CAA2DA92E89828A8388
:1002DF007D011203C17F0A7E001204E0053780C73B
:0102EF0022EC
:100154005394F85393F853960F53950F7F057E00ED
:100164001204E0C2817F057E001204E0AB2CAA2DAC
:10017400A92E89828A837D007F321203C17F0A7E81
:10018400001204E0AB2CAA2DA92E89828A837D005B
:100194007F281203C17F0A7E001204E0AB2CAA2D33
:1001A400A92E89828A837D007F0C1203C17F0A7E77
:1001B400001204E0AB2CAA2DA92E89828A837D002B
:1001C4007F061203C17F0A7E001204E0AB2CAA2D25
:1001D400A92E89828A837D007F011203C17F0A7E52
:0501E400001204E022FE
:0404E0008E4E8F4F5E
:1004E400E54F154FAE4E7002154EFFEF4E601C7572
:1004F4005000E550C3943250E7755100E551C39460
:0B050400145004055180F5055080E7FD
:01050F0022C9
:030000000201E911
:0C01E900787FE4F6D8FD758153020230E7
:10036300BB010CE58229F582E5833AF583E022504F
:1003730006E92582F8E622BBFE06E92582F8E22299
:0D038300E58229F582E5833AF583E49322B3
:10039000D083D082F8E4937012740193700DA3A3FC
:1003A00093F8740193F5828883E473740293B5F033
:0D03B000067403936860E9A3A3A3A380D89B
:0603BD008A838982E473CB
:1001F500020003E493A3F8E493A34003F68001F21D
:1002050008DFF48029E493A3F85407240CC8C3330A
:10021500C4540F4420C8834004F456800146F6DFD9
:10022500E4800B0102040810204080900471E47EF4
:10023500019360BCA3FF543F30E509541FFEE493CE
:10024500A360010ECF54C025E060A840B8E493A395
:10025500FAE493A3F8E493A3C8C582C8CAC583CAC0
:10026500F0A3C8C582C8CAC583CADFE9DEE780BE78
:0104AF00004C
:00000001FF
