:100602002D2D2D2D2D2D2D2D2D2D2D2D2D2D2D2D18
:100612002D2D2D2D2D2D2D2D2D2D2D2D2D2D2D2D08
:100622002D2D2D2D2D2D0D0A00A1BE5541525431D7
:10063200A1BF3A4D4F44312032344D487A203936E9
:1006420030306270730D0A00A1BE5541525431A17F
:10065200BF3A5258442F50332E302C205458442F36
:1006620050332E310D0A004C6973745F496E646514
:1006720078203D2025640A00204D6F646520736553
:100682006C656374696F6E20002D2D202020204D33
:100692004F4445202020202D2D002D2D2020727525
:1006A2006E20206F6E6520202D2D002D2D202072B2
:1006B200756E202074776F20202D2D002D2D207235
:1006C200756E20746872656520202D2D002D2D20F9
:1006D20072756E20666F757220202D2D0000042D1C
:1006E2002D202020202020202020202020202D2DE1
:1006F200FF0B7700000000022D2D20207468726528
:1007020061645F3220202D2D00FF0B4F000000009E
:10071200032D2D20207468726561645F3320202DC3
:100722002D00FF0B6300000000012D2D20207468B6
:10073200726561645F3120202D2D00FF0B8B00005C
:0107420000B6
:100B9D004200700002420072000043006D00000030
:10074300900002E4F0A3F0A3F01207DC7BFF7A062B
:1007530079021200817BFF7A06792B1200817BFFDD
:100763007A06794A1200817BFF7A067902120081A8
:100773007BFF7A067969900070E0FFA3E0900008A0
:10078300CFF0A3EFF0120081900070E0FEA3E0FF32
:10079300120ABA900002EBF0A3EAF0A3E9F090008A
:1007A30072E07002A3E0601C900002E0FBA3E0FA99
:1007B300A3E0F99000131204C9120552900070E4EB
:1007C300F0A304F0900002E0FBA3E0FAA3E024020C
:0907D300F9E43AFA1209CB80970F
:1007DC0053E28F53E18FE4F596F59553941F5393A1
:1007EC001F7F05FE120AE9D28AD2AAD2AFC2FD122D
:1007FC000B22120B067BFF7A06797AE4FDFC1209B8
:10080C00CF7A06798B1209C9900070E4F0A304F03A
:10081C007BFF7A067969900008E4F0A304F01200DB
:10082C0081120AE57BFF7A067969900070E0FFA3DC
:10083C00E0900008CFF0A3EFF01200811208F47BD7
:10084C00FF7A067969900070E0FFA3E0900008CF72
:0C085C00F0A3EFF0120081D288D2A82295
:100ABA0090006DE0FBA3E0FAA3E0F9EA494B601469
:100ACA0012049EB50706E5F0B5060122900016123B
:0A0ADA0004C980E77B007A00790070
:010AE40022EF
:1008F40078057C007D017BFF7A0679DF7E007F1915
:1009040012044B781E7C007D017BFF7A0679F87E09
:10091400007F1912044B78377C007D017BFF7A0736
:1009240079117E007F1912044B78507C007D017B85
:10093400FF7A07792A7E007F1912044B7B017A0023
:100944007905120A777B017A007937120A777B01DD
:100954007A00791E120A777B017A007950020A77AD
:100A7700900069EBF0A3EAF0A3E9F090006DE0FBCA
:100A8700A3E0FAA3E0F9C003C002C001900069E047
:100A9700FBA3E0FAA3E0F99000161204F9900069AD
:100AA700E0F9A3E0FAA3E090006DC9F0A3EAF0A390
:030AB700E9F02241
:100B8B007A06799C1209C9900072E07002A3E0709A
:020B9B00EF2247
:100B4F007BFF7A0679AD1209CB900072E07002A399
:040B5F00E070ED2233
:100B63007BFF7A0679BE1209CB900072E07002A374
:040B7300E070ED221F
:100B77007BFF7A0679CF1209CB900072E07002A34F
:040B8700E070ED220B
:040AE5007F057E000B
:100AE900EF1FAA0670011E4A6012E4FDEDC394329D
:0C0AF90050EEE4FC0CECB414FB0D80F09B
:010B050022CD
:100B3900ED7004C2FC8002D2FC8FA0120AE5D2FE3D
:060B4900120AE5C2FE22C3
:100B0600E4FD7F38120B39E4FD7F0C120B39E4FD4E
:0C0B16007F06120B39E4FD7F01020B3951
:0609C9007BFF7D017C00B4
:0B09CF00900069EBF0A3EAF0A3E9F050
:1009DA00ED4C7005FD7F808004E4FD7FC0120B3969
:1009EA00120AE5E490006CF090006CE0FFC39410EA
:1009FA005024900069E0FBA3E0FAA3E0F98F827526
:100A0A008300120471FF7D01120B39120AE590006E
:060A1A006CE004F080D244
:010A200022B3
:100B2200759850438E01438E0475D78F75D6FD4359
:070B32008E10C298C2992247
:08000600C2998F993099FD2287
:060BAE00AE071200062252
:030003000209648B
:10096400C0E0C083C082C0D030872AC3900071E049
:100974009403900070E064809480500EA3E004F02F
:10098400703A900070E004F08032900070E4F0A3BC
:100994007403F08027D3900071E09401900070E01C
:1009A40064809480400EA3E024FFF0900070E03453
:1009B400FFF08008900070E4F0A304F0D0D0D0825F
:0509C400D083D0E032F9
:03001300020A21BD
:100A2100C0E0C083C082C0D075D000C002C004C085
:050A310005C006C0072E
:100A3600900000E4F0A3F020B3247F14FE120AE92C
:100A460020B31B900072E07002A3E070047F018067
:0E0A5600027F00900072E4F0A3EFF030B3FDD9
:100A6400D007D006D005D004D002D0D0D082D08315
:030A7400D0E0329D
:030000000208688B
:0C086800787FE4F6D8FD7581210208AF0E
:10037B00E709F608DFFA8046E709F208DFFA803E64
:10038B0088828C83E709F0A3DFFA8032E309F60851
:10039B00DFFA8078E309F208DFFA807088828C83B9
:1003AB00E309F0A3DFFA806489828A83E0A3F6086D
:1003BB00DFFA805889828A83E0A3F208DFFA804C47
:1003CB0080D280FA80C680D4806980F2803380101E
:1003DB0080A680EA809A80A880DA80E280CA803387
:1003EB0089828A83ECFAE493A3C8C582C8CCC583FF
:1003FB00CCF0A3C8C582C8CCC583CCDFE9DEE780CF
:10040B000D89828A83E493A3F608DFF9ECFAA9F04D
:10041B00EDFB2289828A83ECFAE0A3C8C582C8CCA3
:10042B00C583CCF0A3C8C582C8CCC583CCDFEADEBC
:10043B00E880DB89828A83E493A3F208DFF980CC1E
:10044B0088F0EF60010E4E60C388F0ED2402B40417
:10045B000050B9F582EB2402B4040050AF232345BE
:06046B0082239003CB7315
:10047100BB010CE58229F582E5833AF583E0225040
:1004810006E92582F8E622BBFE06E92582F8E2228A
:0D049100E58229F582E5833AF583E49322A4
:10049E00BB010A89828A83E0F5F0A3E02250068729
:1004AE00F009E71922BBFE07E3F5F009E3192289EB
:0B04BE00828A83E493F5F0740193221E
:1004C900BB010DE58229F582E5833AF5830205959D
:1004D9005007E92582F8020583BBFE07E92582F862
:1004E9000205BEE58229F582E5833AF5830205D046
:1004F900BB0120E58229F582E5833AF583D0F0D066
:10050900E0F8D0E0F9D0E0FAD0E0FBE8C0E0C0F0D4
:100519000205B55018E92582F8D083D082D0E0F9D8
:10052900D0E0FAD0E0FBC082C08302058CBBFE1884
:10053900E92582F8D083D082D0E0F9D0E0FAD0E082
:09054900FBC082C0830205C72239
:060552008A838982E47334
:10001600E5082408F582E43400F583E0050822901B
:100026000005300703900008E475F00112059E02F2
:1000360005582000E97F2ED2008018EF540F249037
:10004600D43440D4FF30040BEF24BFB41A0050035D
:100056002461FFE50960021509050CE50C7002052F
:100066000B30070E900005E475F00112059EEF02B5
:100076000571020BAE7403D2078003E4C207F508CC
:100086009000051205B5E4F509F50BF50CE50960D8
:10009600077F2012005980F5750AFFC201C200C20F
:1000A60002C203C205C206C208120025FF700D3047
:1000B60007057F0012006AAF0CAE0B22B4255FC2A3
:1000C600D5C204120025FF24D0B40A00501A75F0D8
:1000D6000A780930D50508B6FF0106C6A426F6201B
:1000E600D5047002D20380D924CFB41A00EF50048D
:1000F600C2E5D20402026BD20180C6D20080C0D211
:100106000280BCD2D580BAD20580B47F20120059B5
:100116002002077401B5090040F1120016FF120013
:1001260059020093D208D2068095120016FB1200DF
:1001360016FA120016F94A4B7006793C7A037BFFD1
:1001460020022EE509602A7E008E82758300120445
:100156007160060EEE650A70F0C2D5EBC0E0EAC02B
:10016600E0E9C0E0EE1202B2D0E0F9D0E0FAD0E069
:10017600FB120558FF60AAEBC0E0EAC0E0E9C0E068
:10018600120059D0E02401F9D0E03400FAD0E0FBA7
:10019600E50A0460DCD50AD980877BFF7A0279AE4E
:1001A600D202809C791080027908C206C2088008B3
:1001B600D2D5790A8004790AC2D5E50A047002F517
:1001C6000AE4FAFDFEFF120016FC7B08200113125A
:1001D6000016FD7B1030000A120016FE120016FFF4
:1001E6007B20EC3382D592D55013C3E43000069FB2
:1001F600FFE49EFEE42001039DFDE49CFCE4CBF8B5
:10020600C201EC700CCFCECDCCE824F8F870F380A8
:1002160017C3EF33FFEE33FEED33FDEC33FCEB3368
:10022600FB994002FB0FD8E9EB300105F8D0E0C49A
:1002360048B201C0E00AEC4D4E4F78207B0070C2F8
:10024600EAB50A0040BCC0E01202B4D0F0D0E0200B
:100256000104C4C0E0C4B201C0F0120042D0F0D51F
:10026600F0EB0200931205DC01305301AA5801019C
:100276004C00FD4201AE4F01B64401B6490116439A
:0802860001BC5501A04601A0D6
:10028E004501A047035C5001052D01092E012C2BC1
:10029E00010D23012A2003452A00C5480000012430
:1002AE003F3F3F00790AA2D5200314300509B9104B
:1002BE00020404B9080104A2D5200602500104204C
:1002CE0002689202B509005034C0E07F2030031955
:1002DE007F30A20272067205500F12030BC202C2C9
:1002EE0006C205C2087F30800F300503E9C0E01258
:1002FE000059300503D0E0F9D0E0B509CC30051730
:10030E007F30B9100C1200597F583004077F788067
:10031E0003B908031200593002057F2D0200597FE0
:10032E00202008F87F2B2006F322920280CF286E21
:10033E00756C6C2900D2011200163001F8C20178DA
:10034E000930D50108F60200C52D50434958120058
:10035E00162403B405004001E49003579312004A9B
:0D036E00743A12004AD2037509040201AA74
:10087400020743E493A3F8E493A34003F68001F250
:1008840008DFF48029E493A3F85407240CC8C33385
:10089400C4540F4420C8834004F456800146F6DF54
:1008A400E4800B0102040810204080900B9DE47E3C
:1008B400019360BCA3FF543F30E509541FFEE49349
:1008C400A360010ECF54C025E060A840B8E493A310
:1008D400FAE493A3F8E493A3C8C582C8CAC583CA3B
:1008E400F0A3C8C582C8CAC583CADFE9DEE780BEF3
:010BAD000047
:10055800BB010689828A83E0225002E722BBFE02A1
:09056800E32289828A83E49322D4
:10057100BB010689828A83F0225002F722BBFE0169
:02058100F32263
:09058300E6FB08E6FA08E6F9229D
:09058C00EBF608EAF608E9F62294
:09059500E0FBA3E0FAA3E0F92267
:10059E00F8E0FBA3A3E0F925F0F0E58215827002E6
:0705AE001583E0FA38F0228A
:0905B500EBF0A3EAF0A3E9F02247
:0905BE00E2FB08E2FA08E2F9226E
:0905C700EBF208EAF208E9F22265
:0C05D000E493FB740193FA740293F92287
:1005DC00D083D082F8E4937012740193700DA3A3AE
:1005EC0093F8740193F5828883E4737402936860C2
:0605FC00EFA3A3A380DFC2
:00000001FF
