:083313004501540004FF398D4F
:10398D00900172EEF0A3EFF0900174ECF0A3EDF066
:10399D00900172E0FEA3E0FFEF8EF012099A39BF9D
:1039AD00000139D0000239E1000339F200040000B2
:1039BD003A03900174E0FEA3E0FFEE4F24FFB392B3
:1039CD00A08038900174E0FEA3E0FFEE4F24FFB31A
:1039DD0092A18027900174E0FEA3E0FFEE4F24FF3B
:1039ED00B392A28016900174E0FEA3E0FFEE4F2487
:1039FD00FFB392A380057EFF7FFF22E47E007F0050
:013A0D002296
:073E4A004396F05395F022AE
:1028A5002D2D2D2D2D2D2D2D2D2D2D2D2D2D2D2D53
:1028B5002D2D2D2D2D2D2D2D2D2D2D2D2D2D2D2D43
:1028C5002D2D2D2D2D2D0D0A00BBB6D3ADC0B4B5C4
:1028D500BDCBBCD0DEB5E7D7D3D6B1C1F7B1A3BB6D
:1028E500A4BFAAB7A2B0E5B5C4D6D5BCABCAB5D10D
:1028F500E9004C6973745F496E646578203D202555
:10290500640A0020202020202020202020202020B4
:1029150020202000204D6F64652073656C6563740D
:10292500696F6E20002D2D202020204D4F4445201D
:102935002020202D2D002D70726F74656374205634
:1029450020736574202D0025326400565F5F726127
:102955006E6765002D70726F74656374204920730E
:102965006574202D00495F5F72616E6765002D708B
:10297500726F74656374205020736574202D005048
:102985005F5F72616E6765002D446973706C617974
:1029950020706172616D202D00252E326600493A46
:1029A50000412000563A00503A002D2D2072756ED8
:1029B50020666F757220202D2D0000052D2D2020FD
:1029C500202020202020202020202D2D00FF3D50DC
:1029D50000000000042D2D20207468726561645F7D
:1029E5003420202D2D00FF0A0600000000022D2DA9
:1029F50020207468726561645F3220202D2D00FFF0
:102A050018FE00000000032D2D20207468726561FA
:102A1500645F3320202D2D00FF1E90000000000173
:102A25002D2D20207468726561645F3120202D2D65
:072A350000FF136C0000001C
:10331B004200F100024200F300004300AF00000046
:10332B004100C0004200B800234200B6001954000F
:10333B00D5000000000000000000000000000000AD
:10334B0000000000004200BA00004200A3000A4245
:10335B00008E00004200B4001E4200B20000440088
:10336B00C1000000004400BC0000000044009F00AE
:08337B0000000042007D00008B
:102BA200900176740AF0900176E0FFEFC394015031
:102BB20003022C7D900177E4F0900176E0FFEF14A0
:102BC200FF900177E0FEEEC39F4003022C74900158
:102BD20077E0FFEF25E024D7F582E43400F583E0C7
:102BE200FEA3E0FF900177E0FDED25E024D5F5821C
:102BF200E43400F583E0FCA3E0FDD3ED9FEC9E40BE
:102C020068900177E0FFEF25E024D5F582E43400F7
:102C1200F583E0FEA3E0FF900178EEF0A3EFF090E1
:102C22000177E0FFEF25E024D7F582E43400F58355
:102C3200E0FEA3E0FF900177E0FDED25E024D5F56D
:102C420082E43400F583EEF0A3EFF0900178E0FE29
:102C5200A3E0FF900177E0FDED25E024D7F582E4C3
:102C62003400F583EEF0A3EFF0900177E004F00278
:102C72002BBB900176E014F0022BA890017674022F
:102C8200F0900176E0FFEFD39407502A900176E0AE
:102C9200FFEF25E024D5F582E43400F583E0FEA3BE
:102CA200E0FF9000BBE02FF09000BAE03EF0900110
:102CB20076E004F080CB9000BAE0FEA3E0FF7C0057
:0D2CC2007D061207A89000BAEEF0A3EFF017
:012CCF0022E2
:102DF9007B007A007900900192EBF0A3EAF0A3E955
:102E0900F01238877BFF7A2879A512248D7BFF7A07
:102E19002879CE12248D7BFF7A2879A512248D7BFF
:102E2900FF7A2879F79000F1E0FEA3E0FF9000F81F
:102E3900EEF0A3EFF012248D9000F1E0FEA3E0FF85
:102E490012390A900192EBF0A3EAF0A3E9F090009D
:102E5900F3E0FEA3E0FFEF4E6020900192E0FBA3B8
:102E6900E0FAA3E0F97582137583001208EB1209E1
:102E7900C79000F1E4F0A37401F0900192E0FBA384
:102E8900E0FAA3E0F9E92402F9EA3400FAC003C040
:102E990002C00190013EE0FBA3E0FAA3E0F98982B8
:102EA9008A83D001D002D0037D017C001209CB7B3B
:102EB900FF7A297908C003C002C00190013EE0FBF6
:102EC900A3E0FAA3E0F989828A83D001D002D00372
:0A2ED9007D027C001209CB022E28B6
:012EE30022CC
:10388700123E4A123DE9123E4112347A123E21128B
:103897003DBE120006D28AD2AAD2AF7BFF7A29791F
:1038A70019C003C002C00190013EE0FBA3E0FAA3E8
:1038B700E0F989828A83D001D002D0037D007C00A1
:1038C7001209CB7BFF7A29792AC003C002C0019075
:1038D700013EE0FBA3E0FAA3E0F989828A83D001E5
:1038E700D002D0037D017C001209CB9000F1E4F0F7
:1038F700A37401F07F057E00123B66122EE4D28886
:03390700D2A82221
:08390A00900159EEF0A3EFF06B
:103912009000AFE0FBA3E0FAA3E0F990015BEBF0CB
:10392200A3EAF0A3E9F090015BE0FBA3E0FAA3E0D5
:10393200F9EA494B604E90015BE0FBA3E0FAA3E099
:10394200F9120829FFAEF0900159E0FCA3E0FDEF67
:10395200B50510EEB5040C90015BE0FBA3E0FAA301
:10396200E0F92290015BE0FBA3E0FAA3E0F97582A3
:10397200167583001208EB90015BEBF0A3EAF0A34B
:0A398200E9F080A27B007A007900D2
:01398C002218
:102EE4007BFF7A2979BFC003C002C0017B017A004D
:102EF4007900A801AC02AD03D001D002D0037E005A
:102F04007F1912072A7BFF7A2979D8C003C002C02F
:102F1400017B017A007919A801AC02AD03D001D07C
:102F240002D0037E007F1912072A7BFF7A2979F1E8
:102F3400C003C002C0017B017A007932A801AC024F
:102F4400AD03D001D002D0037E007F1912072A7B83
:102F5400FF7A2A790AC003C002C0017B017A007992
:102F64004BA801AC02AD03D001D002D0037E007F98
:102F74001912072A7BFF7A2A7923C003C002C001F1
:102F84007B017A007964A801AC02AD03D001D002C0
:102F9400D0037E007F1912072A7B017A0079001280
:102FA4003C457B017A007919123C457B017A007912
:102FB4004B123C457B017A007932123C457B017A05
:062FC400007964123C4597
:012FCA0022E4
:103C4500900195EBF0A3EAF0A3E9F09000AFE0FB5B
:103C5500A3E0FAA3E0F9C003C002C001900195E01A
:103C6500FBA3E0FAA3E0F975821675830012091B20
:103C7500900195E0FBA3E0FAA3E0F99000AFEBF02B
:073C8500A3EAF0A3E9F0221D
:10136C009001A9E4F07BFF7A29793BC003C002C04D
:10137C000190013EE0FBA3E0FAA3E0F989828A83A5
:10138C00D001D002D0037D017C001209CB90013B2F
:10139C00E0FBA3E0FAA3E0F989828A837D007F0D4C
:1013AC001209CB7B017A0079EDC003C002C0017B2E
:1013BC00FF7A29794C9000F8EBF0A3EAF0A3E9F05E
:1013CC009000B8E0FEA3E0FF9000FBEEF0A3EFF07E
:1013DC00D001D002D0031224877B017A0079E9C0B6
:1013EC0003C002C0017BFF7A29794C9000F8EBF026
:1013FC00A3EAF0A3E9F09000B6E0FEA3E0FF9000B2
:10140C00FBEEF0A3EFF0D001D002D0031224877BC7
:10141C00017A0079E9C003C002C001900144E0FBED
:10142C00A3E0FAA3E0F989828A83D001D002D00329
:10143C007D027C007F007E001209CB900141E0FB15
:10144C00A3E0FAA3E0F989828A837B3C7D027C00CD
:10145C007F037E001209CB7BFF7A297950C003C031
:10146C0002C001900144E0FBA3E0FAA3E0F98982F9
:10147C008A83D001D002D0037D027C007F047E00E1
:10148C001209CB900141E0FBA3E0FAA3E0F98982B9
:10149C008A837B3C7D027C007F0C7E001209CB7B17
:1014AC00017A0079EDC003C002C001900144E0FB59
:1014BC00A3E0FAA3E0F989828A83D001D002D00399
:1014CC007D027C007F0E7E001209CB900160E0FB58
:1014DC00A3E0FAA3E0F989828A837F077E001209D0
:1014EC00CBEF4E70787F147E00123B66900160E06B
:1014FC00FBA3E0FAA3E0F989828A837F077E0012BE
:10150C0009CBEF4E70579001A9E0FFEFC394004058
:10151C00119001A9E0FFEFD3940350069001A9E0CC
:10152C0004F09001A9E0FFEFC3940050069001A9CC
:10153C007403F09001A9E0FFEFD3940340059001F0
:10154C00A9E4F0900160E0FBA3E0FAA3E0F9898242
:10155C008A837F077E001209CBEF4E60E690016014
:10156C00E0FBA3E0FAA3E0F989828A837F037E0083
:10157C001209CBEF4E60030216187F147E00123B4B
:10158C0066900160E0FBA3E0FAA3E0F989828A830C
:10159C007F037E001209CBEF4E70719001A9E0FF22
:1015AC00EF12097415C00015D00115E00215F003F7
:1015BC00000015FE9000B7E0240AF09000B6E0346D
:1015CC0000F0802E9000B7E004F070069000B6E0BA
:1015DC0004F0801E9000B9E0240AF09000B8E034CA
:1015EC0000F0800E9000B9E004F070069000B8E0B6
:1015FC0004F0900160E0FBA3E0FAA3E0F989828A91
:10160C00837F037E001209CBEF4E60E6900160E011
:10161C00FBA3E0FAA3E0F989828A837F047E00129F
:10162C0009CBEF4E60030216C77F147E00123B6697
:10163C00900160E0FBA3E0FAA3E0F989828A837F42
:10164C00047E001209CBEF4E70719001A9E0FFEF00
:10165C00120974166F00167F01168F02169F030075
:10166C000016AD9000B7E024F6F09000B6E034FF21
:10167C00F0802E9000B7E024FFF09000B6E034FF2D
:10168C00F0801E9000B9E024F6F09000B8E034FF32
:10169C00F0800E9000B9E024FFF09000B8E034FF29
:1016AC00F0900160E0FBA3E0FAA3E0F989828A8361
:1016BC007F047E001209CBEF4E60E69000B6E0FE90
:1016CC00A3E0FFC3EE6480948050089000B6E4F071
:1016DC00A3E4F09000B6E0FEA3E0FFD3EF9464EE39
:1016EC006480948040099000B6E4F0A37463F09099
:1016FC0000B8E0FEA3E0FFD3EF9464EE6480948026
:10170C0040099000B8E4F0A37463F09000B8E0FED8
:10171C00A3E0FFC3EE6480948050089000B8E4F01E
:10172C00A3E4F090012DE0FBA3E0FAA3E0F9898299
:10173C008A837F007E001209CB9000B6E0FEA3E006
:10174C00FFAD07900127E0FBA3E0FAA3E0F9898243
:10175C008A837F007E001209CB90012DE0FBA3E071
:10176C00FAA3E0F989828A837F007E021209CB906A
:10177C0000B8E0FEA3E0FFAD07900127E0FBA3E07B
:10178C00FAA3E0F989828A837F007E021209CB7B5F
:10179C00017A0079EDC003C002C0017BFF7A297980
:1017AC004C9000F8EBF0A3EAF0A3E9F09000B8E05D
:1017BC00FEA3E0FF9000FBEEF0A3EFF0D001D0020F
:1017CC00D0031224877B017A0079E9C003C002C0E0
:1017DC00017BFF7A29794C9000F8EBF0A3EAF0A397
:1017EC00E9F09000B6E0FEA3E0FF9000FBEEF0A362
:1017FC00EFF0D001D002D0031224879001A9E0FFB2
:10180C00EF120974182000184601186B0218900387
:10181C00000018B59000E9E0FBC003900141E0FB2B
:10182C00A3E0FAA3E0F989828A83D0037D027C00CD
:10183C007F007E001209CB0218D89000EAE0FBC0B2
:10184C0003900141E0FBA3E0FAA3E0F989828A83CB
:10185C00D0037D027C007F017E001209CB806D904D
:10186C0000EDE0FBC003900141E0FBA3E0FAA3E034
:10187C00F989828A83D0037D027C007F0E7E001260
:10188C0009CB80489000EEE0FBC003900141E0FBE7
:10189C00A3E0FAA3E0F989828A83D0037D027C005D
:1018AC007F0F7E001209CB80239000E9E0FBC00380
:1018BC00900141E0FBA3E0FAA3E0F989828A83D08E
:1018CC00037D027C007F007E001209CB9000F3E0C8
:1018DC00FEA3E0FFEF4E60030214D790013BE0FB48
:1018EC00A3E0FAA3E0F989828A837D007F0C1209B8
:0118FC00CB20
:0118FD0022C8
:1018FE009001AAE4F07BFF7A297959C003C002C097
:10190E000190013EE0FBA3E0FAA3E0F989828A830D
:10191E00D001D002D0037D017C001209CB90013B97
:10192E00E0FBA3E0FAA3E0F989828A837D007F0DB4
:10193E001209CB7B017A0079C9C003C002C0017BBA
:10194E00FF7A29794C9000F8EBF0A3EAF0A3E9F0C6
:10195E009000A3E0FEA3E0FF9000FBEEF0A3EFF0FB
:10196E00D001D002D0031224877B017A0079C5C042
:10197E0003C002C0017BFF7A29794C9000F8EBF08E
:10198E00A3EAF0A3E9F090008EE0FEA3E0FF900042
:10199E00FBEEF0A3EFF0D001D002D0031224877B30
:1019AE00017A0079C5C003C002C001900144E0FB7A
:1019BE00A3E0FAA3E0F989828A83D001D002D00392
:1019CE007D027C007F007E001209CB900141E0FB7E
:1019DE00A3E0FAA3E0F989828A837B3C7D027C0036
:1019EE007F037E001209CB7BFF7A29796AC003C080
:1019FE0002C001900144E0FBA3E0FAA3E0F9898262
:101A0E008A83D001D002D0037D027C007F047E0049
:101A1E001209CB900141E0FBA3E0FAA3E0F9898221
:101A2E008A837B3C7D027C007F0C7E001209CB7B7F
:101A3E00017A0079C9C003C002C001900144E0FBE5
:101A4E00A3E0FAA3E0F989828A83D001D002D00301
:101A5E007D027C007F0E7E001209CB900160E0FBC0
:101A6E00A3E0FAA3E0F989828A837F077E00120938
:101A7E00CBEF4E70787F147E00123B66900160E0D3
:101A8E00FBA3E0FAA3E0F989828A837F077E001226
:101A9E0009CBEF4E70579001AAE0FFEFC3940040C0
:101AAE00119001AAE0FFEFD3940350069001AAE033
:101ABE0004F09001AAE0FFEFC3940050069001AA33
:101ACE007403F09001AAE0FFEFD394034005900158
:101ADE00AAE4F0900160E0FBA3E0FAA3E0F98982AA
:101AEE008A837F077E001209CBEF4E60E69001607D
:101AFE00E0FBA3E0FAA3E0F989828A837F037E00EC
:101B0E001209CBEF4E6003021BAA7F147E00123B1C
:101B1E0066900160E0FBA3E0FAA3E0F989828A8374
:101B2E007F037E001209CBEF4E70719001AAE0FF89
:101B3E00EF1209741B52001B62011B72021B8203FF
:101B4E0000001B9090008FE0240AF090008EE0348D
:101B5E0000F0802E90008FE004F0700690008EE072
:101B6E0004F0801E9000A4E0240AF09000A3E0345C
:101B7E0000F0800E9000A4E004F070069000A3E048
:101B8E0004F0900160E0FBA3E0FAA3E0F989828AF9
:101B9E00837F037E001209CBEF4E60E6900160E07A
:101BAE00FBA3E0FAA3E0F989828A837F047E001208
:101BBE0009CBEF4E6003021C597F147E00123B6668
:101BCE00900160E0FBA3E0FAA3E0F989828A837FAB
:101BDE00047E001209CBEF4E70719001AAE0FFEF68
:101BEE001209741C01001C11011C21021C3103007E
:101BFE00001C3F90008FE024F6F090008EE034FF42
:101C0E00F0802E90008FE024FFF090008EE034FFE5
:101C1E00F0801E9000A4E024F6F09000A3E034FFC4
:101C2E00F0800E9000A4E024FFF09000A3E034FFBB
:101C3E00F0900160E0FBA3E0FAA3E0F989828A83C9
:101C4E007F047E001209CBEF4E60E690008EE0FE20
:101C5E00A3E0FFC3EE64809480500890008EE4F001
:101C6E00A3E4F090008EE0FEA3E0FFD3EF940AEE23
:101C7E0064809480400990008EE4F0A3740AF09082
:101C8E0000A3E0FEA3E0FFD3EF940AEE64809480FD
:101C9E0040099000A3E4F0A3740AF09000A3E0FEC4
:101CAE00A3E0FFC3EE6480948050089000A3E4F09C
:101CBE00A3E4F090012DE0FBA3E0FAA3E0F9898202
:101CCE008A837F007E041209CB90008EE0FEA3E093
:101CDE00FFAD07900127E0FBA3E0FAA3E0F98982AC
:101CEE008A837F007E041209CB90012DE0FBA3E0D6
:101CFE00FAA3E0F989828A837F007E061209CB90CF
:101D0E0000A3E0FEA3E0FFAD07900127E0FBA3E0F8
:101D1E00FAA3E0F989828A837F007E061209CB7BC3
:101D2E00017A0079C9C003C002C0017BFF7A29790C
:101D3E004C9000F8EBF0A3EAF0A3E9F09000A3E0DA
:101D4E00FEA3E0FF9000FBEEF0A3EFF0D001D00277
:101D5E00D0031224877B017A0079C5C003C002C06C
:101D6E00017BFF7A29794C9000F8EBF0A3EAF0A3FF
:101D7E00E9F090008EE0FEA3E0FF9000FBEEF0A3F2
:101D8E00EFF0D001D002D0031224879001AAE0FF19
:101D9E00EF1209741DB2001DD8011DFD021E220393
:101DAE0000001E479000C5E0FBC003900141E0FB20
:101DBE00A3E0FAA3E0F989828A83D0037D027C0036
:101DCE007F007E001209CB021E6A9000C6E0FBC0A7
:101DDE0003900141E0FBA3E0FAA3E0F989828A8334
:101DEE00D0037D027C007F017E001209CB806D90B6
:101DFE0000C9E0FBC003900141E0FBA3E0FAA3E0C1
:101E0E00F989828A83D0037D027C007F0E7E0012C8
:101E1E0009CB80489000CAE0FBC003900141E0FB73
:101E2E00A3E0FAA3E0F989828A83D0037D027C00C5
:101E3E007F0F7E001209CB80239000C5E0FBC0030C
:101E4E00900141E0FBA3E0FAA3E0F989828A83D0F6
:101E5E00037D027C007F007E001209CB9000F3E030
:101E6E00FEA3E0FFEF4E6003021A6990013BE0FB18
:101E7E00A3E0FAA3E0F989828A837D007F0C120920
:011E8E00CB88
:011E8F002230
:101E90009001ABE4F07BFF7A297973C003C002C0E4
:101EA0000190013EE0FBA3E0FAA3E0F989828A8376
:101EB000D001D002D0037D017C001209CB90013B00
:101EC000E0FBA3E0FAA3E0F989828A837D007F0D1D
:101ED0001209CB7B017A0079D1C003C002C0017B1B
:101EE000FF7A29794C9000F8EBF0A3EAF0A3E9F02F
:101EF0009000B4E0FEA3E0FF9000FBEEF0A3EFF053
:101F0000D001D002D0031224877B017A0079CDC0A2
:101F100003C002C0017BFF7A29794C9000F8EBF0F6
:101F2000A3EAF0A3E9F09000B2E0FEA3E0FF900086
:101F3000FBEEF0A3EFF0D001D002D0031224877B98
:101F4000017A0079CDC003C002C001900144E0FBDA
:101F5000A3E0FAA3E0F989828A83D001D002D003FA
:101F60007D027C007F007E001209CB900141E0FBE6
:101F7000A3E0FAA3E0F989828A837B3C7D027C009E
:101F80007F037E001209CB7BFF7A297984C003C0CE
:101F900002C001900144E0FBA3E0FAA3E0F98982CA
:101FA0008A83D001D002D0037D027C007F047E00B2
:101FB0001209CB900141E0FBA3E0FAA3E0F989828A
:101FC0008A837B3C7D027C007F0C7E001209CB7BE8
:101FD000017A0079D1C003C002C001900144E0FB46
:101FE000A3E0FAA3E0F989828A83D001D002D0036A
:101FF0007D027C007F0E7E001209CB900160E0FB29
:10200000A3E0FAA3E0F989828A837F077E001209A0
:10201000CBEF4E70787F147E00123B66900160E03B
:10202000FBA3E0FAA3E0F989828A837F077E00128E
:1020300009CBEF4E70579001ABE0FFEFC394004027
:10204000119001ABE0FFEFD3940350069001ABE099
:1020500004F09001ABE0FFEFC3940050069001AB99
:102060007403F09001ABE0FFEFD3940340059001BF
:10207000ABE4F0900160E0FBA3E0FAA3E0F9898211
:102080008A837F077E001209CBEF4E60E6900160E5
:10209000E0FBA3E0FAA3E0F989828A837F037E0054
:1020A0001209CBEF4E600302213C7F147E00123BED
:1020B00066900160E0FBA3E0FAA3E0F989828A83DD
:1020C0007F037E001209CBEF4E70719001ABE0FFF1
:1020D000EF12097420E40020F4012104022114030A
:1020E000000021229000B3E0240AF09000B2E03416
:1020F00000F0802E9000B3E004F070069000B2E093
:1021000004F0801E9000B5E0240AF09000B4E034A2
:1021100000F0800E9000B5E004F070069000B4E08E
:1021200004F0900160E0FBA3E0FAA3E0F989828A61
:10213000837F037E001209CBEF4E60E6900160E0E2
:10214000FBA3E0FAA3E0F989828A837F047E001270
:1021500009CBEF4E60030221EB7F147E00123B6639
:10216000900160E0FBA3E0FAA3E0F989828A837F13
:10217000047E001209CBEF4E70719001ABE0FFEFCF
:1021800012097421930021A30121B30221C303008A
:102190000021D19000B3E024F6F09000B2E034FFCB
:1021A000F0802E9000B3E024FFF09000B2E034FF06
:1021B000F0801E9000B5E024F6F09000B4E034FF0B
:1021C000F0800E9000B5E024FFF09000B4E034FF02
:1021D000F0900160E0FBA3E0FAA3E0F989828A8332
:1021E0007F047E001209CBEF4E60E69000B2E0FE65
:1021F000A3E0FFC3EE6480948050089000B2E4F046
:10220000A3E4F09000B2E0FEA3E0FFD3EF940AEE67
:102210006480948040099000B2E4F0A3740AF090C6
:1022200000B4E0FEA3E0FFD3EF940AEE6480948054
:1022300040099000B4E4F0A3740AF09000B4E0FE0A
:10224000A3E0FFC3EE6480948050089000B4E4F0F3
:10225000A3E4F090012DE0FBA3E0FAA3E0F989826A
:102260008A837F007E081209CB90008EE0FEA3E0F7
:10227000FFAD07900127E0FBA3E0FAA3E0F9898214
:102280008A837F007E081209CB90012DE0FBA3E03A
:10229000FAA3E0F989828A837F007E0A1209CB9033
:1022A00000A3E0FEA3E0FFAD07900127E0FBA3E061
:1022B000FAA3E0F989828A837F007E0A1209CB7B28
:1022C000017A0079C9C003C002C0017BFF7A297975
:1022D0004C9000F8EBF0A3EAF0A3E9F09000B4E032
:1022E000FEA3E0FF9000FBEEF0A3EFF0D001D002E0
:1022F000D0031224877B017A0079C5C003C002C0D5
:10230000017BFF7A29794C9000F8EBF0A3EAF0A367
:10231000E9F09000B2E0FEA3E0FF9000FBEEF0A336
:10232000EFF0D001D002D0031224879001ABE0FF80
:10233000EF120974234400236A01238F0223B4039C
:10234000000023D99000CDE0FBC003900141E0FBE9
:10235000A3E0FAA3E0F989828A83D0037D027C009E
:102360007F007E001209CB0223FC9000CEE0FBC070
:1023700003900141E0FBA3E0FAA3E0F989828A839C
:10238000D0037D027C007F017E001209CB806D901E
:1023900000D1E0FBC003900141E0FBA3E0FAA3E021
:1023A000F989828A83D0037D027C007F0E7E001231
:1023B00009CB80489000D2E0FBC003900141E0FBD4
:1023C000A3E0FAA3E0F989828A83D0037D027C002E
:1023D0007F0F7E001209CB80239000CDE0FBC0036D
:1023E000900141E0FBA3E0FAA3E0F989828A83D05F
:1023F000037D027C007F007E001209CB9000F3E099
:10240000FEA3E0FFEF4E6003021FFB90013BE0FBE9
:10241000A3E0FAA3E0F989828A837D007F0C120988
:01242000CBF0
:012421002298
:100A06007BFF7A29798DC003C002C00190013EE0C8
:100A1600FBA3E0FAA3E0F989828A83D001D002D051
:100A2600037D017C001209CB90012AE0FBA3E0FACA
:100A3600A3E0F989828A837F007E001209CBEF3317
:100A460095E0FE9000B6EEF0A3EFF090012AE0FBF1
:100A5600A3E0FAA3E0F989828A837F007E02120965
:100A6600CBEF3395E0FE9000B8EEF0A3EFF09001E7
:100A76002AE0FBA3E0FAA3E0F989828A837F007E5D
:100A8600041209CBEF3395E0FE90008EEEF0A3EF53
:100A9600F090012AE0FBA3E0FAA3E0F989828A83B9
:100AA6007F007E061209CBEF3395E0FE9000A3EEA1
:100AB600F0A3EFF090012AE0FBA3E0FAA3E0F989A6
:100AC600828A837F007E081209CBEF3395E0FE9081
:100AD60000B2EEF0A3EFF090012AE0FBA3E0FAA348
:100AE600E0F989828A837F007E0A1209CBEF33956B
:100AF600E0FE9000B4EEF0A3EFF090016FE0FBA3F0
:100B0600E0FAA3E0F989828A837D017C007F017E79
:100B1600001209CB200903020F289001ACE4F090E3
:100B260001ACE0FFEFC3940A503290016AE0FBA3E8
:100B3600E0FAA3E0F989828A837F001209CB90014B
:100B4600ACE0FDED25E024D5F582E43400F583EE36
:100B5600F0A3EFF09001ACE004F080C3122BA2905A
:100B660000BAE0FCA3E0FDE41203767B007A00798C
:100B760079783D12015E7B007A0079DE78421202B6
:100B8600677B007A0079A0784012015E9000C1125E
:100B9600088E9000C1E0FCA3E0FDA3E0FEA3E0FF09
:100BA600C004C005C006C0079000F912089A40A00C
:100BB6000000D007D006D005D004122A3C7BC07AAC
:100BC600EC799E783D12015EC004C005C006C007E0
:100BD6009000C1E0FCA3E0FDA3E0FEA3E0FFC0049B
:100BE600C005C006C0079000F912089A40C0000070
:100BF600D007D006D005D004122A3C7B5F7A29792B
:100C0600CB78BB12015EA804A905AA06AB07D007DC
:100C1600D006D005D00412006DC004C005C006C0C1
:100C2600079000C1E0FCA3E0FDA3E0FEA3E0FFC047
:100C360004C005C006C0079000F912089A4080005B
:100C460000D007D006D005D004122A3C7BE57A6195
:100C560079C1783E12015EA804A905AA06AB07D0A1
:100C660007D006D005D004120069C004C005C0062E
:100C7600C0079000C1E0FCA3E0FDA3E0FEA3E0FFF7
:100C8600C004C005C006C0079000F912089A40408B
:100C96000000D007D006D005D004122A3C7B347A57
:100CA600117966783F12015EA804A905AA06AB076A
:100CB600D007D006D005D00412006DC004C005C010
:100CC60006C0079000C1E0FCA3E0FDA3E0FEA3E0A0
:100CD600FFC004C005C006C0079000F912089A407C
:100CE600000000D007D006D005D004122A3C7B674E
:100CF6007A447989783F12015EA804A905AA06AB51
:100D060007D007D006D005D004120069C004C0057C
:100D1600C006C0077F1D7EC97DB57C3F9000C1E03F
:100D2600F8A3E0F9A3E0FAA3E0FB12015EA804A988
:100D360005AA06AB07D007D006D005D00412006D71
:100D46007B2A7A3A7992783D12006D9000C112089A
:100D56008E9000BAE4F0A3E4F07B017A00797FC0BC
:100D660003C002C0017BFF7A29799E9000F8EBF060
:100D7600A3EAF0A3E9F09000C1E0FCA3E0FDA3E044
:100D8600FEA3E0FF9000FB12088ED001D002D00334
:100D96001224877B017A00797F123BFC9000C112F6
:100DA600088E9000A3E0FCA3E0FDEC120376900011
:100DB600C1E0F8A3E0F9A3E0FAA3E0FB12030460A4
:100DC60002505E90008EE0FCA3E0FDEC12037690EC
:100DD60000C1E0F8A3E0F9A3E0FAA3E0FB120304E4
:100DE600403F90016FE0FBA3E0FAA3E0F989828A15
:100DF600837D017C007F017E001209CB900156E0C5
:100E0600FBA3E0FAA3E0F989828A837D007C007F58
:100E1600027E001209CB538EEF438E1053AFFB8038
:100E26007A9000A3E0FCA3E0FDEC1203769000C1EB
:100E3600E0F8A3E0F9A3E0FAA3E0FB1203046002E2
:100E4600501F90008EE0FCA3E0FDEC1203769000AC
:100E5600C1E0F8A3E0F9A3E0FAA3E0FB1203045013
:100E66003A900156E0FBA3E0FAA3E0F989828A836F
:100E76007D017C007F027E001209CB90016FE0FBB2
:100E8600A3E0FAA3E0F989828A837D007C007F01D2
:100E96007E001209CB438E1075AF047BFF7A297949
:100EA600A3C003C002C001900144E0FBA3E0FAA383
:100EB600E0F989828A83D001D002D0037D017C00CB
:100EC6007F007E001209CB7B017A00797FC003C0C8
:100ED60002C001900144E0FBA3E0FAA3E0F9898295
:100EE6008A83D001D002D0037D017C007F027E0080
:100EF6001209CB7BFF7A2979A6C003C002C00190F4
:100F06000144E0FBA3E0FAA3E0F989828A83D001D9
:100F1600D002D0037D017C007F067E001209CB0241
:100F2600118A9001ACE4F09001ACE0FFEFC3940AA3
:100F3600503290016AE0FBA3E0FAA3E0F989828AC5
:100F4600837F021209CB9001ACE0FDED25E024D5AC
:100F5600F582E43400F583EEF0A3EFF09001ACE007
:100F660004F080C3122BA29000BAE0FCA3E0FDE4DB
:100F76001203767B007A0079C8783C12015E9000F5
:100F8600BC12088E9000BAE4F0A3E4F09000B8E03A
:100F9600FCA3E0FDEC1203769000BCE0F8A3E0F9B8
:100FA600A3E0FAA3E0FB120304600250709000B6BF
:100FB600E0FCA3E0FDEC1203769000BCE0F8A3E0B1
:100FC600F9A3E0FAA3E0FB120304405190016FE09D
:100FD600FBA3E0FAA3E0F989828A837D017C007F86
:100FE600017E001209CB900156E0FBA3E0FAA3E0D4
:100FF600F989828A837D007C007F037E001209CBFB
:10100600900156E0FBA3E0FAA3E0F989828A837D8A
:10101600007C007F047E001209CB0210CD9000B840
:10102600E0FCA3E0FDEC1203769000BCE0F8A3E040
:10103600F9A3E0FAA3E0FB120304603840369001FE
:1010460056E0FBA3E0FAA3E0F989828A837D017C5E
:10105600007F037E001209CB90016FE0FBA3E0FA4C
:10106600A3E0F989828A837D007C007F017E0012DD
:1010760009CB80539000B6E0FCA3E0FDEC120376AA
:101086009000BCE0F8A3E0F9A3E0FAA3E0FB1203AA
:10109600045034900156E0FBA3E0FAA3E0F98982FC
:1010A6008A837D017C007F047E001209CB90016F4C
:1010B600E0FBA3E0FAA3E0F989828A837D007C0045
:1010C6007F017E001209CB7B017A007990C003C0B4
:1010D60002C0017BFF7A29799E9000F8EBF0A3EA23
:1010E600F0A3E9F09000BCE0FCA3E0FDA3E0FEA3C2
:1010F600E0FF9000FB12088ED001D002D00312242C
:10110600877B017A007990123BFC9000BC12088E16
:101116007BFF7A2979A9C003C002C001900144E08F
:10112600FBA3E0FAA3E0F989828A83D001D002D03A
:10113600037D017C007F087E001209CB7B017A00CB
:101146007990C003C002C001900144E0FBA3E0FA1D
:10115600A3E0F989828A83D001D002D0037D017C85
:10116600007F0A7E001209CB900141E0FBA3E0FA62
:10117600A3E0F989828A837B567D017C007F0F7EFE
:10118600001209CB9000C1E0FCA3E0FDA3E0FEA3A2
:10119600E0FF9000BCE0F8A3E0F9A3E0FAA3E0FBCF
:1011A60012015E90009F12088E9000B4E0FCA3E04E
:1011B600FDEC12037690009FE0F8A3E0F9A3E0FAB5
:1011C600A3E0FB1203046002505E9000B2E0FCA3B1
:1011D600E0FDEC12037690009FE0F8A3E0F9A3E0AF
:1011E600FAA3E0FB120304403F90016FE0FBA3E08B
:1011F600FAA3E0F989828A837D017C007F017E0063
:101206001209CB900156E0FBA3E0FAA3E0F989822C
:101216008A837D007C007F017E001209CB538EEF0E
:10122600438E1053AFFB807A9000B4E0FCA3E0FD40
:10123600EC1203769000C1E0F8A3E0F9A3E0FAA36C
:10124600E0FB1203046002501F9000B2E0FCA3E032
:10125600FDEC1203769000C1E0F8A3E0F9A3E0FAF2
:10126600A3E0FB120304503A900156E0FBA3E0FA18
:10127600A3E0F989828A837D017C007F017E0012CA
:1012860009CB90016FE0FBA3E0FAA3E0F989828A1B
:10129600837D007C007F017E001209CB438E107592
:1012A600AF047B017A0079A5C003C002C0017BFFB1
:1012B6007A29799E9000F8EBF0A3EAF0A3E9F09082
:1012C600009FE0FCA3E0FDA3E0FEA3E0FF9000FB8F
:1012D60012088ED001D002D0031224877BFF7A2910
:1012E60079ACC003C002C001900144E0FBA3E0FA60
:1012F600A3E0F989828A83D001D002D0037D027CE3
:10130600007F007E001209CB7B017A0079A5C0031D
:10131600C002C001900144E0FBA3E0FAA3E0F98912
:10132600828A83D001D002D0037D027C007F027EB8
:10133600001209CB900141E0FBA3E0FAA3E0F98992
:10134600828A837B577D027C007F077E001209CB51
:10135600B2099000F3E0FEA3E0FFEF4E6003020B3C
:051366000022020B0053
:01136B00225F
:103D50007BFF7A2979AFC003C002C00190013EE029
:103D6000FBA3E0FAA3E0F989828A83D001D002D0D4
:103D7000037D017C001209CB9000F3E0FEA3E0FF7D
:083D8000EF4E70CC2280C92235
:083B660090017AEEF0A3EFF0EC
:103B6E0090017A74FF75F0FF120813AFF0FEEF4E5E
:103B7E00603090017CE4F090017CE0FFEFC3943262
:103B8E0050DE90017DE4F090017DE0FFEFC39414D0
:103B9E00500890017DE004F080ED90017CE004F08F
:023BAE0080D5C0
:013BB00022F2
:030003000235C201
:1035C200C0E0C0F0C083C082C0D075D000C000C0CF
:1035D20001C002C003C004C005C006C0079001605C
:1035E200E0FBA3E0FAA3E0F989828A837F017E00EF
:1035F2001209CBEF4E70469000F1E0FEA3E0FFC34C
:10360200EF9404EE6480948050109000F2E004F095
:1036120070069000F1E004F080099000F1E4F0A35C
:103622007401F0900160E0FBA3E0FAA3E0F9898263
:103632008A837F017E001209CBEF4E60E6D007D06D
:1036420006D005D004D003D002D001D000D0D0D013
:0836520082D083D0F0D0E032F9
:0A000600438E0475D78075D644229E
:0300130002377A37
:10377A00C0E0C0F0C083C082C0D075D000C000C015
:10378A0001C002C003C004C005C006C007900160A2
:10379A00E0FBA3E0FAA3E0F989828A837F027E0034
:1037AA001209CBEF4E701C9000F3E0FEA3E0FFEF8E
:1037BA004E70047F0180027F007E009000F3EEF0DD
:1037CA00A3EFF0900160E0FBA3E0FAA3E0F989829D
:1037DA008A837F027E001209CBEF4E60E6D007D0C3
:1037EA0006D005D004D003D002D001D000D0D0D06A
:0837FA0082D083D0F0D0E03250
:03006300023A0E50
:103A0E00C0E0C0F0C083C082C0D075D000C000C07E
:0D3A1E0001C002C003C004C005C006C007FF
:103A2B0090007DE0FEA3E0FFC3EF94A0EE940F4067
:103A3B002590016FE0FBA3E0FAA3E0F989828A836A
:103A4B007D017C007F017E001209CB90007DE4F0AC
:103A5B00A3E4F0538EEF90007EE004F0700690002C
:043A6B007DE004F006
:103A6F00D007D006D005D004D003D002D001D000AB
:0B3A7F00D0D0D082D083D0F0D0E03255
:0833830045015E0008FF38025D
:0838020090017EEEF0A3EFF04F
:10380A00900180E4F0A3E4F090017EE0FEA3E0FFE3
:10381A00EF8EF012099A38440001384B00023852F0
:10382A000003385900043860000538670006386E0E
:10383A000007387500080000387CA2B2E4FE33FFA6
:10384A0022A2B3E4FE33FF22A2B4E4FE33FF22A293
:10385A00B5E4FE33FF22A2B6E4FE33FF22A2B7E4A8
:10386A00FE33FF22A297E4FE33FF22A2CDE4FE3309
:0C387A00FF227EFF7FFF22E47E007F0023
:01388600221F
:103DE90053B20353B10353CADF53C9DF53927F530D
:033DF900917F2295
:10338B004E01390001FF3AF9FF3256FF365AFF3131
:01339B00949D
:103AF9009001A1EFF09001A2EDF09001A2E0FFEF9B
:103B090024FF92807F057E00123BB153A00F9001E4
:103B1900A1E0FFEF54F0FFEF42A0D2827F0A7E00BE
:103B2900123BB1C2827F0A7E00123BB19001A1E033
:103B3900FFEFC454F0FF9001A1EFF053A00F9001E3
:103B4900A1E0FFEF54F0FFEF42A0D2827F0A7E008E
:0D3B5900123BB1C2827F0A7E00123BB122F6
:1032560090014EEBF0A3EAF0A3E9F0900151ECF0F7
:03326600A3EDF0E5
:10326900900153E4F0900151E0FEA3E0FFEF640107
:103279004E701890013BE0FBA3E0FAA3E0F98982C4
:103289008A837D007F801209CB8024900151E0FE62
:10329900A3E0FFEF64024E701690013BE0FBA3E050
:1032A900FAA3E0F989828A837D007FC01209CB7F66
:1032B900647E00123BB1900153E4F0900153E0FFAA
:1032C900EFC3941050437F0A7E00123BB190014E28
:1032D900E0FBA3E0FAA3E0F9900153E0FF8F8275C8
:1032E9008300120769FF90013BE0FBA3E0FAA3E02A
:1032F900F989828A837D011209CB7F0A7E00123BFC
:09330900B1900153E004F080B220
:013312002298
:10365A00900163EEF0A3EFF0900165ECF0A3EDF0BA
:10366A00900167EBF0900165E0FEA3E0FFEF6401D3
:10367A004E7022900163E0FEA3E0FFEF2480FF90EA
:10368A00013BE0FBA3E0FAA3E0F989828A837D008B
:10369A001209CB802E900165E0FEA3E0FFEF6402E1
:1036AA004E7020900163E0FEA3E0FFEF24C0FF907C
:1036BA00013BE0FBA3E0FAA3E0F989828A837D005B
:1036CA001209CB7F647E00123BB1900167E0FF9044
:1036DA00013BE0FBA3E0FAA3E0F989828A837D013A
:0436EA001209CB22D4
:10319400900147EEF0A3EFF0900149ECF0A3EDF0BD
:1031A40090014BEBF0A3EAF0A3E9F0900149E0FEB3
:1031B400A3E0FFEF64014E7022900147E0FEA3E01C
:1031C400FFEF2480FF90013BE0FBA3E0FAA3E0F9CA
:1031D40089828A837D001209CB802E900149E0FE0A
:1031E400A3E0FFEF64024E7020900147E0FEA3E0ED
:1031F400FFEF24C0FF90013BE0FBA3E0FAA3E0F95A
:1032040089828A837D001209CB7F647E00123BB1E0
:1032140090014BE0FBA3E0FAA3E0F9120750FFEFA3
:10322400602F90014BE0FBA3E0FAA3E0F9120750F2
:10323400FF90013BE0FBA3E0FAA3E0F989828A83D3
:103244007D011209CB90014CE475F0011207FD8059
:02325400BF2297
:10347A005394F85393F853960F53950F7F057E0094
:10348A00123BB1C2817F057E00123BB190013BE045
:10349A00FBA3E0FAA3E0F989828A837D007F3212D6
:1034AA0009CB7F0A7E00123BB190013BE0FBA3E00F
:1034BA00FAA3E0F989828A837D007F281209CB7FEB
:1034CA000A7E00123BB190013BE0FBA3E0FAA3E0C5
:1034DA00F989828A837D007F0C1209CB7F0A7E00DC
:1034EA00123BB190013BE0FBA3E0FAA3E0F9898229
:1034FA008A837D007F061209CB7F0A7E00123BB1C8
:10350A0090013BE0FBA3E0FAA3E0F989828A837D7C
:0E351A00007F011209CB7F0A7E00123BB12216
:083BB100900182EEF0A3EFF099
:103BB90090018274FF75F0FF120813AFF0FEEF4E0B
:103BC9006030900184E4F0900184E0FFEFC3943207
:103BD90050DE900185E4F0900185E0FFEFC3941475
:103BE9005008900185E004F080ED900184E004F034
:023BF90080D575
:013BFB0022A7
:08339C004501680001FF3A8AB7
:053A8A00900198EFF02F
:103A8F00900199E4F0A3E4F053BCF0900198E0FFAB
:103A9F00EF42BC43BC407F0A7E00123B66E5BC3060
:103AAF00E5FB53BCDFAFBD7E00EF75F010A4FFAE9A
:103ABF00F0900199EEF0A3EFF0900199E0FCA3E0F4
:103ACF00FDAFBE7E00EEC4F854F0C868FEEFC454DC
:103ADF000F48FFEC4EFEED4FFF900199EEF0A3EF74
:093AEF00F0900199E0FEA3E0FF54
:013AF80022AB
:103E210075BC025392FB43910475DE0F43BC8022A3
:0833A40045016D0001FF3CCE64
:103CCE00900186EEF0A3EFF0900188ECF0A3EDF0FA
:103CDE00900186E0FEA3E0FFEF8EF012099A3CF40D
:103CEE00000100003D04900188E0FEA3E0FFEE4FCE
:103CFE0024FF928380057EFF7FFF22E47E007F00FB
:013D0E002292
:093E41004394085393F7C2832255
:0533AC004201A3000135
:103DBE00759850438E01438E0475D78F75D6FD438B
:073DCE008E10C298C2992279
:103E0F009001ADEFF0C2999001ADE0FF8F9930991D
:023E1F00FD2282
:103DFC009001AEEFF09001AEE0FF123E0F9001AEDD
:033E0C00E0FF22B2
:1033B1005401250001FF3C8CFF3D0FFF3D88FF3389
:0733C100C9FF30B1FF001647
:103E310075C70075C50075C60075C38075C40022BD
:083D0F0090019BEEF0A3EFF020
:103D170075C78075F51875C50190019BE0FEA3E096
:103D2700FF8FC490019BE0FEA3E0FFEEFF3395E019
:103D3700FE8FC375C65A75C6A50090019DE5C2F0F2
:083D4700123E3190019DE0FFE6
:013D4F002251
:103C8C0090019EEEF0A3EFF09001A0EDF075C780CF
:103C9C0075F51875C50290019EE0FEA3E0FF8FC478
:103CAC0090019EE0FEA3E0FFEEFF3395E0FE8FC394
:103CBC009001A0E0FF8FC275C65A75C6A500123ED2
:023CCC003122A3
:103D88009001A5EEF0A3EFF075C78075F51875C51D
:103D9800039001A5E0FEA3E0FF8FC49001A5E0FE1B
:103DA800A3E0FFEEFF3395E0FE8FC375C65A75C6D4
:063DB800A500123E3122BD
:1033C90090018AEEF0A3EFF090018CECF0A3EDF000
:1033D90090018AE0FEA3E0FF90018CE0FCA3E0FDF0
:1033E900123C8C90018AE0FEA3E0FFEF2401FFEE7E
:1033F9003400FEC006C00790018CE0FEA3E0FFEE9A
:10340900FF3395E0FEAD07D007D006123C8C900142
:103419008AE0FEA3E0FFEF2402FFEE3400FEC006BF
:10342900C00790018CE0FEA3E0FFEF7810CEA2E781
:1034390013CE13D8F8FFAD07D007D006123C8C90F5
:10344900018AE0FEA3E0FFEF2403FFEE3400FEC093
:1034590006C00790018CE0FEA3E0FFEF7818CEA22A
:10346900E713CE13D8F8FFAD07D007D006123C8C6E
:013479002230
:0830B10090018EEEF0A3EFF098
:1030B900900190E4F0A3E4F090018EE0FEA3E0FF1C
:1030C900123D0FEF3395E0FE900190E0FCA3E0FD87
:1030D900EE4CFEEF4DFF900190EEF0A3EFF0900162
:1030E9008EE0FEA3E0FFEF2401FFEE3400FE123D67
:1030F9000FEF3395E0FEEF7F00FE900190E0FCA317
:10310900E0FDEE4CFEEF4DFF900190EEF0A3EFF0E5
:1031190090018EE0FEA3E0FFEF2402FFEE3400FEF3
:10312900123D0FEF3395E0FEEF7810C333CE33CE67
:10313900D8F9FF900190E0FCA3E0FDEE4CFEEF4DC5
:10314900FF900190EEF0A3EFF090018EE0FEA3E076
:10315900FFEF2403FFEE3400FE123D0FEF3395E03D
:10316900FEEF7818C333CE33CED8F9FF900190E043
:10317900FCA3E0FDEE4CFEEF4DFF900190EEF0A3B5
:0A318900EFF0900190E0FEA3E0FFDC
:013193002219
:100016009001A7EEF0A3EFF09001A7E0FEA3E0FFAA
:10002600123D889001A7E0FEA3E0FFEF2401FFEE5A
:100036003400FE123D889001A7E0FEA3E0FFEF2406
:1000460002FFEE3400FE123D889001A7E0FEA3E019
:0D005600FFEF2403FFEE3400FE123D882270
:100066000203E4E86480F8E933E83360110460F0E1
:10007600ED33EC337009E8FCE9FDEAFEEBFF220400
:1000860060DED3EB9FEA9EE99DE8C2E78CF0C2F7FB
:1000960095F0400CE8CCF8E9CDF9EACEFAEBCFFBC7
:1000A6001203AF85D0F05804700320D5B3E804706E
:1000B600075002B2D50203EE92D5EC0460F7E4CC09
:1000C600C0E0C398F8603B94186008400DD0E0FB90
:1000D6000203C6E4FBFAC9FC8028E830E406E4C95A
:1000E600FBE4CAFCE830E305E4C9CACBFCE85407E4
:1000F6006010F8C3E913F9EA13FAEB13FBEC13FCEF
:10010600D8F130F52FC3E49CFCEF9BFFEE9AFEED91
:1001160099FDD0E0FBEF4E4D4C701222DB0302033B
:10012600EBEC2CFCEF33FFEE33FEED33FDED30E769
:10013600EB0203C6EF2BFFEE3AFEED39FDD0E0FBF6
:1001460050130BBB00030203EEED13FDEE13FEEF9F
:0801560013FFEC13FC0203C6C9
:10015E00EC4D6011E8497017ED33EC3304600DE49B
:10016E00FCFFFEFD22E933E8330470F80203E412CB
:10017E0003AF58046009E4CC2481500628500902CC
:10018E0003EE2840030203EBC0E0EB4A7044B98053
:10019E0006D0E0FB0203DAEF4E701CBD8008EBFFC9
:1001AE00EAFEE9FD80EBE98DF0A4FEE5F0020247E0
:1001BE00E9CDF9EAFEEBFFEF89F0A4FCE5F0CE897C
:1001CE00F0A42EFFE435F0CD89F0A42DFEE435F039
:1001DE008067EF4E7005BD80D780C3EF8BF0A4AC67
:1001EE00F0EE8BF0A42CFCE435F0F8EF8AF0A42CA2
:1001FE00E5F038FCE433CB8DF0A42CFCE5F03BF8B5
:10020E00EE8AF0A42CFCE5F038F8E433CF89F0A4A4
:10021E002CFCE5F038CF3400CE89F0A42FFFE5F0AA
:10022E003EFEE433C98DF0A42EFEE5F039CD8AF002
:10023E00A42FFFE5F03EFEE43DFD33D0E0FB50077A
:10024E000BBB000F0203EEEC2CFCEF33FFEE33FE84
:06025E00ED33FD0203C6B2
:100264000203EEEC5D046005E8590470030203E444
:100274001203AF580460F6EC4860F2EC7004FDFE23
:10028400FF22C860DB2481C85009C398600250066D
:100294000203EB9850CAF582E9294B4A7005AB82F8
:1002A4000203DA75F0007C1A7880C3EF9BEE9AEDB6
:1002B40099400DC3EF9BFFEE9AFEED99FDE842F0E5
:1002C400DC23ACF0D0E0FFD0E0FED0E0FDAB822038
:1002D400E7101BEB60BAEC2CFCEF33FFEE33FEEDC2
:1002E40033FD0203C6E803F830E705C0F075F000FB
:1002F400EF2FFFEE33FEED33FD40B830E7C280AAA6
:1003040074F8CC6480CCC86480C8F582046043C3AC
:10031400EB9FF5F0EA9E42F0E99D42F0E89C45F03F
:1003240060305018E5825FFFE582F42B5582FB5064
:10033400210ABA001D09B90019088016E5825BFB81
:10034400E582F42F5582FF50090EBE00050DBD0055
:10035400010CC3EB9FF5F0EA9E42F0E99D42F0E800
:0D0364009C45F06007CC4820E701B3EC2277
:1003710075F020800E75F010800575F0087D007E07
:10038100007F003392D530D503120854EC3340106E
:10039100EF33FFEE33FEED33FDEC33FCD5F0ED2210
:0E03A100E5F0247EA2D513CC92E7CDCEFF224C
:10242200E50824F8F582E43400F583E005082290FB
:1024320000F53007039000F8E475F0011208CB02B2
:1024420007502000E97F2ED2008018EF540F24900D
:10245200D43440D4FF30040BEF24BFB41A0050032D
:102462002461FFE50960021509050CE50C700205FF
:102472000B30070E9000F5E475F0011208CBEF0265
:102482000796023DFC7403D2078003E4C207F508F5
:102492009000F51208E2E4F509F50BF50CE5096088
:1024A200077F2012246580F5750AFFC201C200C2AF
:1024B20002C203C205C206C208122431FF700D30E7
:1024C20007057F00122476AF0CAE0B22B4255FC243
:1024D200D5C204122431FF24D0B40A00501A75F078
:1024E2000A780930D50508B6FF0106C6A426F620EB
:1024F200D5047002D20380D924CFB41A00EF50045D
:10250200C2E5D204022768D20180C6D20080C0D2BE
:102512000280BCD2D580BAD20580B47F2012246555
:102522002002077401B5090040F1122422FF12248F
:102532006502249FD208D2068095122422FB12241F
:1025420022FA122422F94A4B700679667A287BFF16
:1025520020022EE509602A7E008E82758300120712
:102562006960060EEE650A70F0C2D5EBC0E0EAC003
:10257200E0E9C0E0EE1227C9D0E0F9D0E0FAD0E0FD
:10258200FB120750FF60AAEBC0E0EAC0E0E9C0E03E
:10259200122465D0E02401F9D0E03400FAD0E0FB47
:1025A200E50A0460DCD50AD98087D20280A212270C
:1025B200AB60F7E50A70010412045BA90A600DE53D
:1025C2000A600914F50A122853EF60F3EA30E702B1
:1025D200F404C3995079EAF4250A0430E701E404CB
:1025E200F50A800D1227AB60C1EA050A250A12041A
:1025F2005BEA900124F030E701E4250A04D50A04DD
:10260200200501141227C9E4C0E0122853900124C6
:10261200E0601320E70714F012244D802204F0D06A
:10262200E014C0E07F0012244DE50A600712244442
:10263200150A800B300503122444D0E002249FD0F7
:10264200E00480C41227AB609EE50A0412045B908A
:102652000124EAF0E50A200502600104240412279D
:01266200C9AE
:1026630074FF04C0E012285312244DE50A2005022A
:102673006003122444D0E0B50AE87F451224579042
:102683000124E07F2B30E7047F2DF404C0E0122403
:1026930065D0E075F00A84C0F012244ED0E0122415
:1026A3004E02249F791080027908C206C20880086E
:1026B300D2D5790A8004790AC2D5E50A047002F5F5
:1026C3000AE4FAFDFEFF122422FC7B082001131208
:1026D3002422FD7B1030000A122422FE122422FF42
:1026E3007B20EC3382D592D55013C3E43000069F90
:1026F300FFE49EFEE42001039DFDE49CFCE4CBF893
:10270300C201EC700CCFCECDCCE824F8F870F38086
:1027130017C3EF33FFEE33FEED33FDEC33FCEB3346
:10272300FB994002FB0FD8E9EB300105F8D0E0C478
:1027330048B201C0E00AEC4D4E4F78207B0070C2D6
:10274300EAB50A0040BCC0E01227CBD0F0D0E020AD
:102753000104C4C0E0C4B201C0F012244ED0F0D5CD
:10276300F0EB02249F120974253C5326A758250D2C
:102773004C25094226AB4F26B34426B349252243B1
:1027830026B95525E64626464525B04728865025D1
:10279300112D25152E25382B251923253620286F95
:1027A3002A24D14800002530E50AB4FF03750A0640
:1027B300122422FC122422FD122422FE122422FFC0
:1027C30090011D020498790AA2D52003143005094B
:1027D300B910020404B9080104A2D520060250016D
:1027E300042002689202B509005034C0E07F203013
:1027F30003197F30A20272067205500F122822C2FB
:1028030002C206C205C2087F30800F300503E9C04B
:10281300E0122465300503D0E0F9D0E0B509CC30EF
:1028230005177F30B9100C1224657F583004077FD9
:10283300788003B908031224653002057F2D022432
:10284300657F202008F87F2B2006F322920280CF99
:102853007F00B40700500B241DF582E43401F58397
:10286300E0FF22286E756C6C2900D20112242230FD
:1028730001F8C201780930D50108F60224D12D50A0
:102883004349581224222403B405004001E490284C
:102893008193122456743A122456D2037509040202
:0228A30026A766
:103BFC00D2009000F51208E2123C38C0E0FF123DF2
:103C0C00D5D0E040F3122FDE400122ECC0E0EDC035
:103C1C00E0EEC0E0EFC0E0123C38D0F0AFF0D0F0F6
:103C2C00AEF0D0F0ADF0D0F0ACF080D9E475F0018E
:093C3C009000F51208CB020750BC
:102A3C009000F512088EE4FFFE7D807C3F9000F53F
:102A4C00E0F8A3E0F9A3E0FAA3E0FB12030470069C
:102A5C009000F5022B969000F5E0FCA3E0FDA3E0BE
:102A6C00FEA3E0FF1203F9FBA3E0FCA3E0FDA3E04F
:102A7C00FEA3E0FF1203F9FFB40108E4FFFE7D8022
:102A8C007C3F22EF64046029EB64046024EBB40106
:102A9C0030E4FFFEFDFC9000F9E0F8A3E0F9A3E0C0
:102AAC00FAA3E0FB12030460084006E4FFFEFDFC01
:102ABC00229000F912089AFFFFFFFF9000F9022BF9
:102ACC0096E49000FDF0A3F0FFFEFDFC9000F5E015
:102ADC00F8A3E0F9A3E0FAA3E0FB120304505F9023
:102AEC0000F9E0FCA3E0FDA3E0FEA3E0FF12042448
:102AFC009000FDEEF0A3EFF0FDCCEECCEC120376E3
:102B0C00C8ECC8C9EDC9CAEECACBEFCB9000F9E04E
:102B1C00FCA3E0FDA3E0FEA3E0FF120069E4FBFAD6
:102B2C00F9F8120304708A9000F5E0FCA3E0FDA311
:102B3C00E0FEA3E0FF1204139000F512088E900043
:102B4C00F5E0FCA3E0FDA3E0FEA3E0FF122D049052
:102B5C0000F9E0F8A3E0F9A3E0FAA3E0FB12015EB0
:102B6C001235609000F912088E9000FEE030E017EC
:102B7C009000F9E0FCA3E0FDA3E0FEA3E0FF12044B
:102B8C00139000F912088E9000F9E0FCA3E0FDA36D
:062B9C00E0FEA3E0FF22B1
:1003AF00E9D2E7C933E833F892D5EDD2E7CD33EC94
:0703BF0033FC5002B2D5220D
:1003C600EC30E7100FBF000C0EBE00080DBD000498
:1003D6000BEB6014A2D5EB13FCED92E7FD2274FF44
:1003E600FCFDFEFF22E480F8A2D574FF13FC7D809D
:0303F600E480EFB1
:1003F900ED33EC33601004700FED547F7005740217
:0A04090092E0227404220422E4228F
:10041300ED33EC33600A047003BD8004ECB2E7FCF7
:0104230022B6
:10042400EDD2E7CD33EC3392D524814006E4FFFED0
:10043400FDFC22FCE4CFCECDCC24E0501174FF802F
:10044400EDC3CC13CCCD13CDCE13CECF13CF0470CC
:07045400F030D5DE02085470
:10045B00F920E73624F950037907E4F42402FBE58D
:10046B0082158270021583DBF6E024FB501BE960DA
:10047B0014E4F0E582158270021583E004F0B40AEF
:0D048B0008E4F0D9EE7401F00A22C2D52277
:10049800ED33EC3392D5FA602AB4FF33EDC2E77B33
:1004A800FF60067A0479BDE4227A0479C620D5046F
:1004B8007A0479C1224E614E002B494E46002D49DF
:1004C8004E4600E47A08F0A3DAFC7B00740722C0E9
:1004D80083C082ECC0E0EDC0E0EEC0E0EFC0E0EA2F
:1004E80075F010A4CAABF075F04DA42BFBE435F001
:1004F800FCEA2410FAEB34C5FBEC34D9FCEDC2E776
:10050800FF75F056A4F42411C5F0F434C58FF0A497
:100518002AE5F03BE43CF020E7141205CDD0E0FFDB
:10052800D0E0FED0E0FDD0E0FC1202678014F404B5
:100538001205CDD0E0FFD0E0FED0E0FDD0E0FC1207
:10054800015ED082D083E0FAEDD2E7CD33EC3324DC
:1005580082FBE4C3CF33CFCE33CECD33CD33DBF301
:100568007B0775F00A846004F0A31B0AE5F0F0A38A
:100578008FF0740AA4FFACF08EF0740AA42CFEACC1
:10058800F050010C8DF0740AA42CFDE435F0F0A3B2
:05059800DBDE74072208
:102FCB00C201C202C203C204F9E4F508F509FCFD13
:102FDB00FEFFE91000EA20030CB42D04D203D32228
:102FEB00B42B02D32224D0504794095041240A30E9
:102FFB000415F88509F0740AA42872E74051C5F04E
:10300B00704D85F009D322D202C0E0E4FBFA79209F
:10301B00784112015EECF8EDF9EEFAEFFBD0E0FC33
:10302B00E412037B12006D3001B41508D322240A7D
:10303B00200420B4FE0720011AD201D32224EB6016
:10304B000424E0700EA2039201D204C203D322C364
:10305B000203E4E430040BE509300302F404A2019B
:10306B0092033002EA250820D2E5A2E7920450022F
:10307B00F404B4260050D8CCC0E0EDC0E0EEC0E0C4
:10308B00EFC0E0EC1205CDD0E0FFD0E0FED0E0FDCC
:10309B00D0E0FC20040512015E80031202673003AE
:0630AB0003120413C3220E
:1035280033DA929E35B16011377FE5FE39218489FF
:103538003AAEC3FF3C1D955B3D6358473E75FDF0B1
:103548003F3172183F800000C2D50203EE0203E447
:10355800BD80FA50F30203EBED33EC330460F17BEA
:103568003B7AAA79B8783F12015EED33EC3392D5F5
:10357800247B5011A2D570DB500BED4480240450FD
:1035880004A2D580CEEFFBEEFAEDF9ECF812042494
:10359800EFF582F404FC12037B12006DC0829035B3
:1035A80028740912061CED33CC33D0F092D525F0DF
:0A35B800A2D57001C313CC13FD224D
:102CD0003E9248DA3ECCCCCD3F2AAAAB4000000061
:102CE0003F8000003F9837F03FB504F33FD744FCE6
:102CF0003E3172173EB172173F0515913EDE5BD92A
:102D0000D2008002C200EDD2E7F8CD33EC3304707C
:102D10000BBD800592D50203EE0203E440FBD31401
:102D200060F2F5F07C3FEE7A00C39496C8948B4035
:102D3000230AC89469C8941A401A0AC89468C894A7
:102D40001F40110AC8945AC89425400805F07A001B
:102D5000CDC2E7CDC0F09000FF12088EEA2323C059
:102D6000E024E0F582E4342CF58312087E12006D35
:102D7000ECC0E0EDC0E0EEC0E0EFC0E01208629011
:102D800000FF120872120069D0E0FBD0E0FAD0E038
:102D9000F9D0E0B2E7F81202679000FF12088E90B7
:102DA0002CD0740312060D9000FF12087212015EFF
:102DB000D0E0600F24ECF582E4342CF58312087E19
:102DC00012006D9000FF12088ED0E0C3947FFDE4E6
:102DD0009400FC1203767B187A727931783F1201E5
:102DE0005E9000FF12087212006D30000B7BD97AE2
:092DF0005B79DE783E12015E22DF
:10059D003F8000004120000042C80000447A000066
:1005AD00461C400047C35000497424004B189680E8
:1005BD004CBEBC205A0E1BCA6753C21C749DC5AEDF
:1005CD00FB60065407601C23231205FBEB543860B7
:1005DD00091205E71205F612015EECF8EDF9EEFAD7
:1005ED00EFCB22EB1205F680F1543803241C900555
:1005FD009DFE93FC0EEE93FD0EEE930ECE93FF2219
:10060D00C0E0EFFBEEFAEDF9ECF812015ED0E0F58B
:10061D00F0EFFBEEFAEDF9ECF8120862A3A3A3A339
:10062D00E8C0E0E9C0E0EAC0E0EBC0E0C0F01201D4
:10063D005E12087EA3A3A3A312006DD0F0D0E0FB41
:0D064D00D0E0FAD0E0F9D0E0F8D5F0D422EA
:030000000236EED7
:0C36EE00787FE4F6D8FD758121023735A5
:10065A00E709F608DFFA8046E709F208DFFA803E82
:10066A0088828C83E709F0A3DFFA8032E309F6086F
:10067A00DFFA8078E309F208DFFA807088828C83D7
:10068A00E309F0A3DFFA806489828A83E0A3F6088B
:10069A00DFFA805889828A83E0A3F208DFFA804C65
:1006AA0080D280FA80C680D4806980F2803380103C
:1006BA0080A680EA809A80A880DA80E280CA8033A5
:1006CA0089828A83ECFAE493A3C8C582C8CCC5831D
:1006DA00CCF0A3C8C582C8CCC583CCDFE9DEE780ED
:1006EA000D89828A83E493A3F608DFF9ECFAA9F06C
:1006FA00EDFB2289828A83ECFAE0A3C8C582C8CCC2
:10070A00C583CCF0A3C8C582C8CCC583CCDFEADEDA
:10071A00E880DB89828A83E493A3F208DFF980CC3C
:10072A0088F0EF60010E4E60C388F0ED2402B40435
:10073A000050B9F582EB2402B4040050AF232345DC
:06074A0082239006AA7351
:10075000BB010689828A83E0225002E722BBFE02A7
:09076000E32289828A83E49322DA
:10076900BB010CE58229F582E5833AF583E0225045
:1007790006E92582F8E622BBFE06E92582F8E2228F
:0D078900E58229F582E5833AF583E49322A9
:10079600BB010689828A83F0225002F722BBFE0142
:0207A600F3223C
:1007A800BC000BBE0029EF8DF084FFADF022E4CC35
:1007B800F875F008EF2FFFEE33FEEC33FCEE9DECFE
:1007C800984005FCEE9DFE0FD5F0E9E4CEFD22ED44
:1007D800F8F5F0EE8420D21CFEADF075F008EF2F8E
:1007E800FFED33FD4007985006D5F0F222C398FD7F
:0507F8000FD5F0EA221C
:1007FD00C5F0F8A3E028F0C5F0F8E5821582700287
:06080D001583E038F02223
:10081300A3F8E0C5F025F0F0E58215827002158398
:06082300E0C838F0E822F5
:10082900BB010A89828A83E0F5F0A3E0225006879A
:10083900F009E71922BBFE07E3F5F009E31922895C
:0B084900828A83E493F5F0740193228F
:0E085400C3E49FFFE49EFEE49DFDE49CFC22B5
:10086200E493FC740193FD740293FE740393FF22DC
:0C087200E0F8A3E0F9A3E0FAA3E0FB2209
:10087E00E493F8740193F9740293FA740393FB22D0
:0C088E00ECF0A3EDF0A3EEF0A3EFF022DD
:10089A00A8828583F0D083D0821208B11208B112DF
:1008AA0008B11208B1E473E493A3C583C5F0C58304
:1008BA00C8C582C8F0A3C583C5F0C583C8C582C8A8
:0108CA00220B
:1008CB00F8E0FBA3A3E0F925F0F0E58215827002B6
:0708DB001583E0FA38F0225A
:0908E200EBF0A3EAF0A3E9F02217
:1008EB00BB010DE58229F582E5833AF5830209DF29
:1008FB005007E92582F80209CDBBFE07E92582F8EE
:10090B000209E8E58229F582E5833AF5830209FAC3
:10091B00BB0120E58229F582E5833AF583D0F0D03F
:10092B00E0F8D0E0F9D0E0FAD0E0FBE8C0E0C0F0AE
:10093B000208E25018E92582F8D083D082D0E0F982
:10094B00D0E0FAD0E0FBC082C0830209D6BBFE1810
:10095B00E92582F8D083D082D0E0F9D0E0FAD0E05C
:09096B00FBC082C0830209F122E5
:10097400D083D082F8E4937012740193700DA3A312
:1009840093F8740193F5828883E473740293686026
:06099400EFA3A3A380DF26
:10099A00D083D082F8E4937012740193700DA3A3EC
:1009AA0093F8740193F5828883E473740293B5F023
:0D09BA00067403936860E9A3A3A3A380D88B
:0609C7008A838982E473BB
:103DD500EFC394094005EF940E4004EFB42003D3DC
:043DE5008001C32274
:1036FA00022DF9E493A3F8E493A34003F68001F2C0
:10370A0008DFF48029E493A3F85407240CC8C333D0
:10371A00C4540F4420C8834004F456800146F6DF9F
:10372A00E4800B0102040810204080903313E47EE9
:10373A00019360BCA3FF543F30E509541FFEE49394
:10374A00A360010ECF54C025E060A840B8E493A35B
:10375A00FAE493A3F8E493A3C8C582C8CAC583CA86
:10376A00F0A3C8C582C8CAC583CADFE9DEE780BE3E
:0133C8000004
:0909CD00E6FB08E6FA08E6F9224F
:0909D600EBF608EAF608E9F62246
:0909DF00E0FBA3E0FAA3E0F92219
:0909E800E2FB08E2FA08E2F92240
:0909F100EBF208EAF208E9F22237
:0C09FA00E493FB740193FA740293F92259
:00000001FF
